:100000000060002085000000ED000000EF0000000F
:10001000F1000000F3000000F50000000000000007
:10002000000000000000000000000000F7000000D9
:10003000F700000000000000F9000000FB000000D5
:10004000AD69000000000000A16D0000000000008C
:100050006567000075670000856700009567000010
:10006000E16E0000FD6E00000000000000000000D6
:10007000D5640000000000003969000049690000F3
:10008000FFE700001049114A114B9B1A40F305800D
:10009000043BC858D0503FF7FBAF0E480E490F4AFB
:1000A000914200F0048041F8040BFFF7F9BF0948C2
:1000B0000B490C4A914200F0048041F8040BFFF711
:1000C000F9BF09480047000034E2000000000020AA
:1000D000A001002000000000A001002094460020A4
:1000E000005000200060002015010000FEE7FEE740
:1000F000FEE7FEE7FEE7FEE7FEE7FEE7FEE7FEE7D8
:10010000FEE7FEE7FEE7FEE7FEE7FEE7FEE7FEE7C7
:10011000FEE700BF2DE9F04F40F25B11AC4C01232C
:10012000C2F20001002087B00B702070A94D03F0CF
:1001300025FD03F031FD09F097FF01F0B9FC06F051
:100140009BFB0022A44BC5F20202968806F40057DE
:10015000B9B221B9187810B92E78002EF5D0002741
:10016000C5F20207B98801F4005290B220B11E789E
:1001700016B929780029F5D00027C5F21007C0224A
:1001800087F83C201B780BB101F05CF82D78002D2E
:1001900040F0788340F6E817C2F200077A6A34200C
:1001A000904740F6E813C2F200031D798B48DFF850
:1001B00040B205708A4F8B4DDFF8388240F69606C4
:1001C00040F6B311C2F20006C2F2000133780A7899
:1001D0009A4205D040F635060020C2F20006307083
:1001E00040F69603C2F200031A7840F67D0140F60D
:1001F000350640F6B313C2F20001C2F20006C2F2A5
:10020000000308781A70367840F66F02C2F20002D6
:100210001070002E00F0528140F25B12C2F2000218
:1002200013781BB12078002840F0B6812378002B8A
:1002300000F0428140F69B00C2F20000067816B141
:1002400000212970017040F25E13C2F20003187899
:1002500046B2731C00F0308140F25E11C2F2000120
:100260000878FF2228700A7040F67C03C2F200036F
:100270001E7832468BF800602EB140F66D010123E6
:10028000C2F200010B7040B207286AD8DFE800F024
:10029000B404699C9C9C9C81002A40F0E38202F09B
:1002A0007FF902F03BF902F0B9F901F029FF40F6BD
:1002B0005800C2F200000378002B40F099823A689F
:1002C000042042F6F0469047C2F2000608F032FEE3
:1002D0000520396888473078002840F0BE8142F612
:1002E000F043C2F200031A78002A40F0A3819BF881
:1002F0000000002840F05B8242F6F042C2F20002A9
:10030000117821B19BF80060002E40F0B08240F6D9
:100310009C00C2F200000368002B40F31F82324AA7
:1003200056689819C10F41F20C53C2F200031970BC
:1003300002203968884741F20C52C2F20002137859
:10034000274E002B00F08C8140F65400C2F20000D2
:100350000668022E00F35B812448731C036001F0E1
:10036000FBF93E681220B04740F63703C2F20003A3
:100370001A781AB9207800287FF420AF40F6980147
:10038000C2F200010E78002E3FF418AF00F0CAFB55
:1003900014E740F6B010C2F200000678002EE0D05C
:1003A00041F2105240F6B01142F2CA760123C2F275
:1003B00000020020C2F20001C2F2000613600870C1
:1003C000337006F097FFCCE703F0CAF92870C8E74E
:1003D0004C0A00207008002071080020E42600204C
:1003E00030450020782500209C080020540800207B
:1003F000B6090020642D002040F637060123C2F222
:100400000006337008F0D6F943F27450C2F20000CF
:1004100090F8B020561E12B301F072FE06F0010AE9
:1004200008F05EFA06F1FF39CEB1BAF1000F08D03C
:1004300009F1FF3901F064FE08F052FAB9F1FF3F0B
:100440000DD009F1FF3601F05BFEA9F1020908F0B9
:1004500047FA01F055FE08F043FA002EF1D108F0FA
:10046000E1F940F6BC01C2F200010B7823B902F0B9
:1004700017F900283FF4A2AE01262E7000F08EFF7F
:1004800015203A68904740F6B010C2F2000001789B
:1004900000293FF466AF41F2105340F6B01042F22B
:1004A000CA71C2F200030022C2F20000C2F20001CF
:1004B0001E6002700E7084E72878D5E640F6B7110A
:1004C00040F63503C2F200010120C2F200030E70B3
:1004D000187003F061FB22782E7032B143F274562B
:1004E000C2F2000696F8331111B902F0C1FA207079
:1004F00003F060FB40F6B510C2F2000003784BB980
:1005000040F6BC0240F65A06C2F20002C2F20006F1
:1005100013703370322006F063FC40F69500002122
:10052000C2F20000017040F69503C2F200031A788F
:1005300032B940F6C816C2F2000631780029F2D06E
:1005400006F07CFC40F6E810C2F20000836A01204D
:10055000984740F6E812C2F20002966A1E20B047A1
:1005600040F6B511C2F200010E78B146F6B103F0C3
:1005700059FB207848B140F6B511C2F200010E785F
:10058000002E00F0F0800320287040F6B7110126FD
:10059000C2F200010E703FE60026167040F62422DB
:1005A000C2F20002967102F08FF93FE601F0D0FB33
:1005B0002078002800F0D480022240F65E51C2F27A
:1005C000000110460A7002F09BFA012340F65E52C9
:1005D0001846C2F20002137002F092FA40F65E5121
:1005E000C2F2000130460E7043F27456C2F20006A9
:1005F00002F086FA02F040FB96F8263140F65E5291
:10060000C2F200024846137001F06CFAAFE740F600
:10061000C0019BF80020C2F200010E80002A40F0C9
:100620000F8102F0FBF8002340F654002B70C2F259
:10063000000093E600F0F6FF00287FF458AE40F685
:10064000D511C2F2000191F90060032E00F0A580DF
:10065000002601F055FD2E7081E600F0D3FE3EE647
:1006600040F65401C2F200010B6032680620904748
:1006700005F09EFD33680820984702F0DFF805F08A
:1006800005FF40F69900C2F200000678002E78D0EF
:1006900040F69401C2F200010A7832B940F699039B
:1006A000C2F200031878002871D005F0FDFE02F0B8
:1006B000F1F84FF0110C4FF0405E0CF1010000EB2F
:1006C00000161D237600591C01EB4102013B00EB93
:1006D000C2025EF822A0DBB25A1C06EB01094FEA07
:1006E0001A6A02EB420108F809A000EBC1015EF8AA
:1006F0002110013BDBB2090EB218FF2B08F80210E3
:10070000E1D10CF1FF3C5FFA8CFCBCF1FF0FD4D1BE
:100710009BF8000000285AD10A203E68B04703F039
:10072000EDFA44F22C50C2F200000368984740F6FC
:10073000D81603F0CFFA3A680B209047C2F20006B1
:1007400005F028F905F090FD39680E208847767B82
:100750008EB902F0DBF870B12E7000E60021E2E500
:1007600007232B7003E740F6E813C2F200039A6AEE
:100770001C20904709E711203B68984706F0BAFE15
:10078000EDE509F0C3F9002882D12870E7E509F00A
:100790001BFA002889D12870E1E501F091F80028C2
:1007A0007FF456AF9BF8000000283FF4A5AD00236E
:1007B00004201221512202268DE84700049305935C
:1007C00001201E213B4A402306F0EAFC94E5002369
:1007D00002261222082101920291049305930096A9
:1007E000039604201E21344A222306F0D9FC93E705
:1007F00040F65A02C2F200024FF00009167880F863
:10080000009040F6BC0340F6E810C2F20003C2F2CA
:1008100000001E70826ACEB11E20904740F259112E
:100820009BF800600320FF22C2F2000128700A70CA
:10083000002E3FF494AD4846A92106F06DFB8EE5ED
:1008400000200121102206F031FCEAE60120904749
:100850009BF8001005232B7000293FF480AD304633
:10086000AA21EAE70120792106F056FB17E55A2272
:1008700000238DE80C0001200321104A042306F018
:100880008FFB44E500F05CFD0D4900200870C5F2C7
:100890000200878807F4005293B2002BF9D000259C
:1008A000C5F20205A88800F40056B1B20029F9D1BA
:1008B00070E400BFCC270020872D00207025002089
:1008C000700800202DE9F04FADF68C0D00240021BA
:1008D0004FF4876206A80DF0C9F821464FF43B7229
:1008E0008548029403940DF0C1F821464FF4BB6291
:1008F00082480DF0BBF821464FF4206280480DF08D
:10090000B5F821464FF4A0627E480DF0AFF84FF6DF
:10091000FF714FF487620DF58A600DF0A7F821464C
:10092000042279480DF0A2F82146082277480DF0FC
:100930009DF82146102276480DF098F80DF1100927
:100940002146082273480DF091F848464FF6FF7192
:1009500008220DF08BF8A04625466F48038899B20F
:10096000884576DA01F0CCFB12241E26671EFCB205
:10097000FF2C42D0204607F0F5FF1E2303FB04FCAA
:1009800000B2671C0190591ECBB2FF2BEED018208D
:100990005A1C00FB027206FB043A4FF0405151F81A
:1009A0002200019982B206A830F81AB0521A934573
:1009B000B8BF20F81A200DF58A610CEB030A31F854
:1009C0001AB09345C8BF21F81A20B8F1000F0ED015
:1009D0004C4803EB441A4A4930F81AE051F82A000F
:1009E000C2EB0E0B0BFB0B01454840F82A104548A3
:1009F00003EB441120F81120C5E7484E33782BB3A0
:100A0000474E4448424903235A1ED3B2FF2B1BD002
:100A100002AF36F8132037F813409442B8BF27F8D6
:100A2000132039F813709742C8BF29F8132045B135
:100A300030F8134051F82370A41A04FB047441F8F1
:100A4000234020F81320DFE70135ADB208F101089B
:100A500083E72F46284E304D284C12235A1ED3B21E
:100A6000FF2B2AD01E22222002FB03FC00FB03F8EE
:100A7000511ECAB2FF2AF1D00CEB020106A80DF5F7
:100A80008A6B30F811A03BF81110B5F800E0C1EB0B
:100A90000A00FF28A8BFFF2008EB02017054184885
:100AA00002EB431B1FFA8EFA50F82BB00AF1FF3EFF
:100AB000BBFBFEFA24F811A0DAE7134D134C1448DF
:100AC0000323791E5E1EF3B202AA32F8136039F8CE
:100AD0001320B21AFF2AA8BFFF22EA5450F823209D
:100AE000B2FBF1F224F81320002BEBD123B00DF56B
:100AF000006DBDE8F08F00BF642D0020981F00201E
:100B000084150020CC270020801500206C350020A3
:100B10007C130020583000205C010020F02C0020C5
:100B2000702500202DE9F04F87B09D4B18780028E4
:100B300000F072839B490A7853B25A1CF5D00C78A6
:100B400061B2072900F25F83DFE811F0080031008D
:100B5000B700BD004E011A0221015103924B1C78CF
:100B600034B192493022002081F8AB2001F04AFADA
:100B70008F4B904A904C0120186011682070132010
:100B800088478E480378002B00F03D83874D07F09F
:100B900011FE95F8B0500024A54205D001F0B0FA3E
:100BA000013407F09DFEF7E707F03CFE2BE3002140
:100BB0004FF4206282480CF059FF82480021102235
:100BC0000CF054FF00247E4F7E4D26467E4A10884E
:100BD00083B29E4236DA01F093FA4FF04058122366
:100BE0004FF0180C581EC3B2FF2B17D01E2203F172
:100BF000010A4FEA4319013AD2B2FF2AF2D0501C3F
:100C00000CFB00A158F8210009EB02011FFA80FB40
:100C100057F82100584447F82100ECE76B490A785F
:100C200072B16B48A968838801345A18438869688F
:100C3000AA6000885A182B686A60C1182960A4B29B
:100C40000136C3E7DFF878C1624F00204FF6FF712D
:100C50001225013DEDB2FF2D1BD01E236E01013B7D
:100C6000DBB2FF2BF5D0584A06EB030EB2F800803A
:100C70001FFA88F25CF82E80B8FBF2F29142C8BFEE
:100C800091B206EB03089042B8BF90B227F8182043
:100C9000E5E7514A431A118050809380494A4F48F2
:100CA0009168B1FBF4F3516812688380B1FBF4F3EF
:100CB000B2FBF4F44380048001E0FFF703FE3E49F9
:100CC000012008709FE24FF6FF714FF4A062444884
:100CD0000CF0CCFE00214FF4A0623E480CF0C6FEA2
:100CE0004FF6FF7108223F480CF0C0FE3B48002140
:100CF00008220CF0BBFE374E394D0024324F3988A4
:100D00008AB29442DBDA01F0FBF94FF0405812222C
:100D10004FF0180C571EFAB2FF2A1CD01E2302F106
:100D2000010950015F1EFBB2FF2BF3D0591C0CFBD5
:100D3000019758F82710C71836F817A089B28A45C6
:100D4000B8BF26F81710C71835F817A08A45E9DD8F
:100D500025F81710E6E71D4803780BB90134CDE7F5
:100D60001B4F1E481F4903235A1ED3B2FF2BF5D039
:100D700037F8132030F813E031F813C09645B8BFA8
:100D800020F813209445EFDD21F81320ECE701F063
:100D90009DFF02F001FF01F0C3FF01F06DFF8EE740
:100DA0009808002050300020B5090020743500203C
:100DB0001015002030450020CA27002037080020E9
:100DC000841500207C1300205C010020F02C002002
:100DD00070250020CC270020681300205830002008
:100DE0006C300020104500200021102202A80CF0D9
:100DF0003DFE00210822B3480CF038FE00210822F5
:100E0000B1480CF033FE00210822B0480CF02EFE51
:100E1000AF48002108220CF029FEAE4FAE4D0B2644
:100E20000024013E16F0FF0613D001F069F93B786B
:100E3000002BF6D00499A888039B0A1868880492AE
:100E400019182A8802980134831803910293A4B2D6
:100E5000E7E79C4E9C4D03236420FF215F1EFBB2FD
:100E6000FF2B12D006AF07EB830252F8107CB7FBC2
:100E7000F4F297B2474326F81320A7F5C7421C3A6D
:100E800092FBF1F725F81370E8E7924D01F038F97D
:100E90002C78002CFAD091498A8802F4005086B24E
:100EA000002EF9D18D4FBB8803F40055ACB2002C55
:100EB000F9D08B491E208A6A9047012000F012FE6B
:100EC000884F89483B7806684FF4C061874D01FB25
:100ED000036268780424013CE4B21619844296F84F
:100EE000A67501D12037FFB2814B23F81470002C76
:100EF000F1D17B4D1920A96A8847204600F0F2FD08
:100F0000AA6A1C20904702A8214610220CF0AEFDD0
:100F1000704F714D0B26701E10F0FF0613D001F0BC
:100F2000EFF83B78002BF6D00499A888039B0A18A9
:100F30006888049219182A8802980134831803914A
:100F40000293A4B2E7E7614F5E4E614D0323642034
:100F5000013BDBB2FF2B3FF4B2AE06A901EB8302EB
:100F600052F8101C36F81320B1FBF4F127F81310D7
:100F700089B2891A414391FBF2F225F81320E7E781
:100F800000214FF420625B480CF070FD00214FF40B
:100F9000BB6259480CF06AFD584800214FF4A0622A
:100FA0000CF064FD534C0B254FF04056013D15F0FD
:100FB000FF051FD001F0A4F818271223013BDBB274
:100FC000FF2BF3D01E2203F101084FEA431B501EF2
:100FD000C2B2FF2AF2D0511C07FB018056F8200054
:100FE0000BEB02011FFA80F954F82100484444F841
:100FF0002100ECE7414D3F4C12230A20013BDBB2BC
:10100000FF2B0DD01E225E01013AD2B2FF2AF5D08D
:10101000B11834F82170B7FBF0F725F81170F3E739
:101020004FF0030B0BF1FF3B5FFA8BFBBBF1FF0FA4
:101030003FF445AE274E01F063F83478002CFAD027
:101040002649888800F4005295B2002DF9D1234B2F
:101050009E8806F40054A1B20029F9D02048224D00
:10106000826A1E209047012000F03CFD1D4B4FF48A
:10107000C06019781E2348432E681C4612258046FE
:101080005A1ED3B2FF2B3BD00327B3FBF7FC07FB61
:101090001C3205FB03F75FFA82FE1222511ECAB210
:1010A000FF2AEDD004FB02803118C818DE4590F805
:1010B0001E1201D11031C9B20D4807EB020C20F805
:1010C0001C10EBE7583000206C3500201045002044
:1010D000841F0020F02C002070250020000002500A
:1010E000E80900205E0D00204C01002030E20000E5
:1010F0000060003084150020981F0020CC270020BD
:10110000474E1720B46AA047002000F0EBFC0021F6
:101110004FF4206243480CF0A9FC424CB56A1C20F5
:10112000A8474FF040560B25691E11F0FF051FD050
:1011300000F0E6FF18271223581EC3B2FF2BF3D08E
:101140001E2203F101084FEA431E511ECAB2FF2AB4
:10115000F2D0501C07FB008156F821000EEB020173
:101160001FFA80F954F82100484444F82100ECE7C4
:101170002D4912220320013AD4B2FF2C3FF452AF82
:10118000222666431E234FEA44184FF00A0C6427B8
:101190000194013BDBB2FF2B27D0B3FBF0F900FB3E
:1011A0001932204D5FFA82F908EB0304D94555F84E
:1011B0002450EED01D4AADB232F81440B5FBFCF21B
:1011C000151B7D4395FBF4F5F41831F9149085EA6D
:1011D000E57AAAEBE57AB9F1000FB8BFC9F10009C9
:1011E000CA45D6DD21F81450D3E7019AC3E7104A67
:1011F000104B00201070104918701048012402682C
:101200000C70142090470E4C2278072A01D006F06B
:1012100071F8FF21217088E407B0BDE8F08F00BFAE
:10122000E809002084150020981F0020CC2700200A
:101230003508002098080020B00900203045002023
:10124000503000202DE9F04105F026FB0025394FF4
:10125000394C3A4EA8463B78002B3AD0A088B8F1DA
:10126000000F19D180B240F48071A288A180A288B9
:101270004FF0010893B243F40070A288A080A188C7
:101280008AB242F48063A288A380A088A28881B237
:1012900041F40063A3801CE020F480710A04130C65
:1012A000A288A380A0884FF0000820F400710A04EF
:1012B000130CA288A380A08820F480610A04130C78
:1012C000A288A380A08820F400610A04130CA288DD
:1012D000A38032784AB3A08895B981B241F0020365
:1012E000A288A380A28890B240F48055A288A580ED
:1012F000A18801258BB243F40050A288A08014E09D
:1013000020F0020529040B0CA288A380A28822F4F5
:1013100080500504290CA288A180A38823F40052E0
:101320001004050CA288A5800025142005F0EEFA13
:1013300091E700BF81080020000002509A080020B9
:101340002DE9F843114DDFF85080114F114E002464
:10135000A9461F2214F80800624337F81010002332
:101360008B4208D202EB030E16F80EC005F803C03C
:101370000133DBB2F4E7D9F8281001348847162C82
:10138000E7D18220BDE8F84305F0C0BAE8090020A3
:10139000A4000020B0DB000098DB000040F2A8129F
:1013A000C2F20002F0B40023164646F8043B0436AD
:1013B00046F8043B46F8043B46F8043B46F8043B39
:1013C00046F8043B40F2A41740F2A31540F2A114E2
:1013D00040F2A01040F2A211C2F2000746F8043B0E
:1013E000C2F20005C2F20004C2F20000C2F2000123
:1013F0003B70536033602B70237003700B70F0BC34
:10140000704700BF2DE9F00F7E4B86B01A88002A86
:101410006BD17D4E02253B22571EF9B202EB4204EE
:1014200001EB4100641940194A1E36F814B036F831
:101430001070D2B2FF2A23F814B023F81070EBD149
:10144000013DEDB2FF2DE6D1704BDFF8D0B1019335
:101450006F4E3778022F02D8791CCFB237707C1EBE
:10146000DFF8BCC1E6B20221731E06EB4600DBB218
:101470004218FF2B06F001045BF822001BD044B198
:1014800003EB430252185BF82220013BDBB28018C9
:101490000FE05D1E03EB4304EAB202EB4203651862
:1014A0005BF825505C185BF82440013A4019D3B230
:1014B0000019FF2BEDD14B1EB0FBF7F24CF82120A9
:1014C000D9B2FF29D0D101980278531CD9B2022990
:1014D000017002D94D4A002010704E4B19788CF8DB
:1014E0000C1006B0BDE8F00F704748494A4C087828
:1014F000B4F80E810290029D029F6E00F219DFF88F
:101500000891DFF818B10191039608F13208022121
:1015100000921446002606A800EB010C6518374619
:1015200000244BF825600CF8044C3B263846721E0C
:101530007500D2B205EB060A54008A44A7187D183C
:1015400039F81A6033F81A70BF1B002FB8BF7F42FA
:10155000474507FB070704D91CF8040C01300CF8B9
:10156000040C23F81A6033F8156039F815A0CAEB9B
:1015700006000028B8BF4042404504D91CF8045C6E
:1015800001350CF8045CA418013AD6B26418FF2E99
:1015900023F814A000FB0070C9D1009C4E1E6218F5
:1015A000F1B2FF294BF82200B4D11C489DF8166017
:1015B00000EB84039F68BC0A9C6016B1B4FBF6F292
:1015C0009A60039802999DF8154043180BEB830726
:1015D0007E68B20A7A6014B1B2FBF4F078600399C5
:1015E000029B9DF81420CF18BE005BF80640A00AAD
:1015F0004BF80600002A3FF42BAF084BB0FBF2F18A
:10160000995125E7684200207C250020A401002094
:10161000A20100205E0D002074350020A8010020EA
:10162000D8090020F8B5424B424D1B68002413F046
:10163000FF002C70404A32D1517B002974D03F49C1
:101640003F4C91F810712678B74257D33D4B00209C
:101650001E78207052F82630B1F8141199423ED20B
:10166000394C364B207893F8167100F101015FFA7E
:1016700081FC674584F800C03AD30021176856689A
:101680009068324A324B1278A3F800C05F809E8087
:10169000D880002A41D1032927D00120F8BD294B49
:1016A000567B26491B7866B9B1F80C0152F82330F5
:1016B0008342D1D9224B274A01201E701670287010
:1016C000F8BDB1F80E6152F82330B34213D21C4F6B
:1016D0003C7801343C70B1F814119942C0D31A4CD3
:1016E000002631462670B446C8E700202070F8BDB9
:1016F00003212970C2E7124F3C70ECE7154E91F8B8
:1017000011C137780137FFB2BC4537709ED20E4900
:1017100002220B7033702A70F8BD04210A20C822FF
:1017200005F0C4FC2978B6E706480449067891E735
:10173000B43B0020D5090020D809002074350020D2
:10174000A30100205E0D0020A0010020B6090020AA
:10175000C0080020A10100202DE9F84F534C94F956
:101760000030012B05D0022B47D000232370BDE8A9
:10177000F88F4F4D2E78002E40F08E804D4F012077
:10178000B7F8CC60B7F8CE5006FA00F605FA00F5C7
:10179000494B4A4F4FF4A0515871787303204FF4CE
:1017A0007A7283F8D600A3F8FE100220A3F8001185
:1017B0004FF4A57183F8D700A3F802114FF42570F8
:1017C000A3F80621A3F80821BE21CD22A3F8040125
:1017D000A3F8BC20A3F8BE106B2046223021A3F84A
:1017E000CC60A3F8CE50A3F8C000A3F8C220A3F8A1
:1017F000C41000232370BDE8F88F2D48017800291C
:101800004FD12C4A2C4B92F80590B2F8CC80B2F80C
:10181000CEC092F8D67092F8D760B2F8FE50B2F807
:101820000001B2F80211B2F804A1B2F806B183F8CF
:101830000590A3F806B1B2F808B1A3F8CC80A3F8DC
:1018400008B1B2F8BCB0A3F8CEC0A3F8BCB0B2F8EF
:10185000BEB083F8D670A3F8BEB0B2F8C0B083F8BB
:10186000D760A3F8C0B0B2F8C2B0B2F8C420A3F8F1
:10187000C2B0A3F8C420114AA3F8FE50A3F8000197
:10188000A3F80211A3F804A14FF0000B002382F883
:101890000DB02370BDE8F88F0020112105F03CFB4E
:1018A0006CE70020132105F037FBAAE7D5090020DB
:1018B000B6090020D843002074350020D809002044
:1018C00070B51C4A9068431C1DD1002351681D4609
:1018D00088421C4613D801461668B14202D900233B
:1018E0001D461C46144E3178A14206D052F8250000
:1018F000124AB2F81421904207D3002070BD012390
:101900001D461C46E8E70223E0E70D4A002011804F
:101910005380347000F0E6F80A4B3178054A1878A5
:10192000117308B9012070BD002002219F2205F02B
:10193000BDFBF7E7D80900205E0D002074350020BC
:10194000C0080020B609002040F6E813C2F20003E8
:1019500000221A605A609A60DA601A615A619A61CC
:10196000DA611A62704700BF0346821F09480B2ADA
:1019700030F8130009D9A3F11401052905D9064A45
:10198000064932F8132005F039B9034931F813102C
:1019900005F096B900000020A4000020E80900200E
:1019A00010B5A0F11702022A82B0034609D9063801
:1019B0000B2803D9A3F1140105290ED8002002B089
:1019C00010BD0D480D4A30F8130032F813200021E5
:1019D00002B0BDE8104005F0ABB8074A084C32F839
:1019E0001300064A214632F8132005F0A1F8E36AF5
:1019F000019098470198E2E700000020A400002031
:101A0000E80900201F4B1920A3F8CE00F12083F82D
:101A1000B2001D48002202801C482D21827128201E
:101A2000A3F8D0001420A3F8D20093F8290183F87A
:101A3000D62083F83E0093F82A019A721A7183F82F
:101A4000D82083F8420083F83D201620A3F8E02038
:101A5000A3F8E22083F8E420A3F8E620A3F8E82026
:101A600083F8EA2093F82821A3F8CC1083F83200F9
:101A70000F21322083F8B110A3F82C0183F836200F
:101A8000704700BF74350020CC2C0020240A0020B1
:101A900038B5064C0546636A26209847A078A16AA7
:101AA00065F38200A0702620884738BDE809002031
:101AB00008B5084A084B094809495A620022986249
:101AC000D96283F83020FFF73FFFBDE8084000F0FF
:101AD000A5BF00BF69190000E8090020A119000096
:101AE00049190000012810B5164A08D009D3022868
:101AF00014BF002001200CBFC821002103E0517E4B
:101B000001E0517ED07F104B147E1C705970917E85
:101B10009970D17ED970117F1971517F5971917F60
:101B20009971D87192F8200092F821200749187213
:101B30005A7208781A7860F301021A7026209B6A9C
:101B4000984710BD74350020E80900205E0D002084
:101B500008B53D4A3D4B92F8281092F829001970BB
:101B600092F82A105870997092F82B0092F82C1065
:101B7000D870197192F82D0092F82E105871997141
:101B800092F82F0092F83010D871197292F8310043
:101B900092F832105872997292F8330092F8341019
:101BA000D872197392F8350092F8361058739973F9
:101BB00092F8370092F83810D873197492F83900F7
:101BC00092F83A10587492F83B009974D87492F8CD
:101BD0003C1092F83D001975587592F83E1092F835
:101BE0003F009975D87592F8401092F84100197627
:101BF000587692F8421092F843009976D87692F887
:101C0000441013481977017809B1002101E0114807
:101C10008179597792F8450092F84610987792F8B2
:101C20004700D97783F8200092F8481092F84900CD
:101C300092F84A2083F8211083F8220083F82320A9
:101C400028209B6A984708BD74350020E8090020C9
:101C50005B010020240A002008B53B4A3B4B92F868
:101C60004B1092F84C00197092F84D105870997002
:101C700092F84E0092F84F10D870197192F85000F7
:101C800092F851105871997192F8520092F85310CD
:101C9000D871197292F8540092F8551058729972CE
:101CA00092F8560092F85710D872197392F85800AB
:101CB00092F859105873997392F85A0092F85B1081
:101CC000D873197492F85C0092F85D10587492F809
:101CD0005E009974D87492F85F1092F860001975DC
:101CE000587592F8611092F862009975D87592F85B
:101CF000631092F864001976587692F8651092F89D
:101D000066009976D87692F8671092F8680019778D
:101D1000587792F8691092F86A009977D87792F814
:101D20006B1092F86C0083F8201083F8210092F871
:101D30006D1092F86E2083F82210292083F823205A
:101D40009B6A984708BD00BF74350020E809002051
:101D5000A849A94A38B514256B1EDDB2FF2DA54C44
:101D600002D0545D4C55F7E7A44DA16A2120884765
:101D7000A87BEA7B20702B7C6270697CA87CEA7C63
:101D8000A370E170A36A2071627122209847297DB7
:101D9000687D2170A26A607023209047AB7DA16AA4
:101DA000237024208847EB7D20460C256C1EE5B26D
:101DB000FF2D904C01D04355F8E7904DA26A2520A5
:101DC0009047687E297EAA7E21706070E87EA270AE
:101DD000EB7FE070297F6A7FA87F2171627195F89F
:101DE0002110A071E37195F82030854A2372617249
:101DF00010782378A16A60F30103237026208847B6
:101E000095F8222095F82300227095F8251060702F
:101E100095F8262095F8243095F82700A370E170F6
:101E2000A36A2271607127209847FFF791FEFFF7A0
:101E300013FF95F86F1095F87020217095F87100D8
:101E4000627095F8723095F8731095F87420A07050
:101E5000E3702A202171A36A6271984795F8750092
:101E600095F87610207095F8772095F8783095F8E9
:101E700079006170A27095F87A10E37095F87B2074
:101E8000207195F87C3095F87D006171A27195F80C
:101E90007E10E37195F87F20207295F8803095F8D8
:101EA00081006172A27295F88210E37295F8832026
:101EB000207395F8843095F885006173A273E373FD
:101EC000207495F8861095F8872095F8883061740D
:101ED00095F88900A27495F88A10E37495F88B2020
:101EE00095F88C30207561752B20A275A16AE37579
:101EF000884795F88D0095F88E20207095F88F30E2
:101F000095F8901095F891006270A37095F8922062
:101F1000E17095F89330207195F8941095F895003C
:101F20006271A37195F89620E17195F8973020724F
:101F300095F8981095F899006272A37295F89A2016
:101F4000E17295F89B30207395F89C1095F89D00F0
:101F50006273A373E1732074A26A2C20904795F8F2
:101F60009E3095F89F1095F8A00095F8A120237059
:101F70006170A36AA070E2702D20984795F8A210B6
:101F800095F8A30095F8A42095F8A530217060700D
:101F900095F8A610A27095F8A700E37095F8A82010
:101FA00095F8A93021716071A16AA2712E20E371A8
:101FB000884795F8AC3095F8AA0095F8AB202070CA
:101FC000A16A62702F20A370884795F8AD00A26ABD
:101FD000207030209047297B237861F3050323701C
:101FE000687B6278A16A60F3050262701D208847F1
:101FF00038BD00BFE80900205CDE00007435002019
:102000005E0D002008B50A4A0A4B18B1002119706C
:10201000302004E092F8AA1092F8AB0019705870C2
:1020200092F8AC20034B2F209A70996A884708BD1C
:1020300074350020E809002008B540F6E813C2F224
:102040000003996A0520884708BD00BF10B5084CF9
:102050001320636A9847207800F00F010F2905D0FC
:10206000044A1378181C18BF012010BD012010BDB0
:10207000E8090020BC08002010B540F6E814C2F2C0
:102080000004636A12209847207800F0030010BD16
:102090000228F8B506460F4617D001281DD0144D6A
:1020A0002E703546134C144AA36A905D98475FB171
:1020B000142004F02BFC1220616A8847207800F07D
:1020C00003039D42F4D1F8BDF8BD0C4C3121002032
:1020D00084F8AB10FFF796FFE1E7084B00203B22A6
:1020E00083F8AB20FFF78EFF014802250670D9E781
:1020F0007C150020E809002070DE00007435002007
:102100002DE9F04F0A4EDFF834B03078012385B066
:102110008BF80030002800F0F281064C00218A463E
:1021200021700F46044DDFF81890DFF8188019E091
:10213000BC08002058080020284500207F08002007
:10214000C9090020B509002047B9B94B93F82721E8
:1021500022B998F80000002800F0BE81002004F0A9
:102160009DFB3078AA78002A39D12378002B36D10C
:102170000028E9D104F092FB99F800000028F0D083
:10218000FFF77AFF40F66E01C2F200010A780346BB
:1021900012B1002800F0A881BAF1090F00F3B48150
:1021A0000AF1010A98F800203AB940F6BD00C2F2DF
:1021B00000000178002900F07B81002B40F078813D
:1021C0003078012340F65A02C2F20002984213709E
:1021D00000F07981AA7801212170002AC5D0002859
:1021E00000F08A8120780023AB708BF80030002843
:1021F00040F05B818F4F3C78ACB18F494FF030227B
:102200008D788E4832F815304C78C3F38915858067
:1022100032F814300978C3F38914448032F811205D
:10222000C2F389150580367846BB3F7837B3844FB3
:10223000844E02244FF0302504F114007B6AC0B2B2
:1022400098473B2335F8131003EB4302581EC1F3A4
:1022500089111319C0B226F8131035F81010431E57
:1022600000EB4002DBB21019C1F38911FF2B26F8F5
:102270001010E7D1013CE4B2FF2CDDD140F66055EF
:102280004FF6FF77C2F20005002638464FF4005C97
:102290002F8040F624593C46112731464FF0120852
:1022A000C2F20009C3F2000C082FA9F800604FF039
:1022B000405B4646E24688463CD907F1010C1D22A8
:1022C000CDF804C002EB820607EB86033AF8135000
:1022D000A146C5F38913A3429DB2ACBF4C462C4620
:1022E00002F1010C4B45B8BF28464345DDF8049088
:1022F00046460CEB4C0CD4BFC046A846013A09EB4D
:10230000CC0CD2B242F2E469C2F20009B342C8BFB7
:102310002946FF2A99F80090A4B21FFA88F84BF8D2
:102320002C30CFD17B1EDDB2FF2D3E4643D02F4651
:10233000082FC2D8C6F109035FFA83FC1D22CDF82D
:102340000CC002EB820607EB86053AF8153042F224
:10235000E469C3F3891326469DB2A342C2F2000981
:10236000ACBF34462C4699F800C0B342B8BF2846EB
:102370004345CCBF2E4646464345C8BF2946DDF8F7
:102380000C80BCF1020F18BFB84602F10105013AFA
:1023900008F1010905EB4505D2B209EBC505FF2A95
:1023A000A4B24BF825301FFA86F8CAD17B1EDDB2E5
:1023B000FF2D3E46BBD1244EDFF898C03578234A26
:1023C000C1469CF8003005F1050BC4EB090A22F860
:1023D00015406F1C22F81B9040F6605440F62459BB
:1023E00005F10A08FFB2C2F20004C2F20009042B90
:1023F0002080A9F8001022F818A0377003D8581CC4
:10240000C3B28CF80030042F6BD8114E5D1E3146DC
:10241000ECB202EB440231F8024F901B861E91424F
:10242000C6F340004D898E8A32D0D0B114E000BF8F
:1024300074350020F02C002030E2000070250020D0
:10244000E80900207C25002064130020400D0020B6
:102450003E0D0020260D002031F802CF4F89888ADA
:102460000EE08F1CB1F802A0B1F80C90B7F8148000
:102470000431B7F802C0888A4F8954444D44464419
:1024800064447D1986199142A4B2ADB2B6B2E8D1C6
:10249000204A20B229B236B290FBF3F091FBF3F15F
:1024A00096FBF3F310805180938005B0BDE8F08F68
:1024B0003078002340F65A0EC2F2000E98428EF891
:1024C00000307FF487AE0A2004F0CAFC40F6BC005E
:1024D000C2F20000007845E6022004F0DFF901278F
:1024E0003FE60021317090E7029004F0E7FC022003
:1024F00004F0D4F9029B55E604F0E0FC72E60A20F1
:1025000004F0AEFC307808E6034B307859784A1C6A
:102510005A7064E6240A00207408002038B5194B6C
:10252000194C1978194A9878194B1278595C237804
:102530005BB272B95A1C0CD001FB00F0154A11684D
:10254000884213DD0131012B11600ED088420FDD6E
:1025500038BD1048002505609D4212D00E4B1A78F8
:1025600042B90E4B01202570187038BD0125F3E7E4
:102570000125F3E705F10E010020C9B204F0CCFCFF
:10258000EFE738BD74350020590100206E1300209C
:1025900084DE0000D0010020B6090020B40900202C
:1025A00038B5194B187820B9184991F90020012A3B
:1025B00000D038BD164B18780028FAD0372004F028
:1025C0000FFC0024C5F20204A58805F400518AB26C
:1025D000002AF9D10020C5F20200838803F40054D8
:1025E000A5B2002DF9D00B4D1E20A96A88470A4CD0
:1025F000002004F053F92278002AF9D004F01EFCE0
:10260000AB6A1C209847D4E76E13002059010020C4
:10261000F02C0020E8090020C80900202DE9F0472F
:102620001B4A82B013681B4E13B93068000122D5D3
:10263000194DDFF868800121AA4288F8001011D2F4
:10264000134C05F1140A002701E098F80010C4EBC0
:102650000A09B9F1140FA8BF4FF0140971B94C441D
:10266000AC42F2D331680B4B090100D4FEE71A6883
:1026700022F00060186002B0BDE8F08722460097A3
:10268000019700205FFA89F1022304F089FCE6E754
:102690000050002054010020EC5F0020B60900200B
:1026A0002DE9F04FDFF870814FF00009DFF864A1E9
:1026B00089B0484647469AF800204D4B002A00F062
:1026C0008F801C785CB921464FF4BB6249480BF0FF
:1026D000CDF92146082248480BF0C8F97AE0FFF707
:1026E0000FFD464E12256C1E9DB398F80A3123B19A
:1026F000204606F037F91FFA80F9B97A97F80A21CF
:10270000079106921E214FF0180C0FFA89F04B1E0C
:10271000E1B10CFB01524FF0405151F822200699D3
:1027200092B201B1121A142101FB034B344951F842
:102730002BE0079936F913B042FA01F2A2EB1E42E0
:102740009345B8BF26F813201946E0E7443E2546D6
:10275000C9E72C4803789BB92B4A107848B3052168
:10276000122252234FF0020C8DE80E10002104912A
:10277000059103201E211F4A442304F011FD18E097
:1027800098F80B50214C1C4A0323591ECBB2FF2B47
:10279000E2D01F4830F8131054F8230041FA05F135
:1027A000A1EB104132F913008842B8BF22F8131090
:1027B000EBE7144B1A786AB11348017851B15423EE
:1027C0004FF0000E03208DE8084001460A4A052319
:1027D00004F0E6FB9AF80000054B187001206AE748
:1027E0000C4980F001000A781A7009B0BDE8F08F3A
:1027F0001C090020981F0020841F00201C2400209A
:1028000000400030F02C0020B60900208C1300207E
:1028100070250020800800207435002008B503F0E2
:1028200079FBBDE8084004F065BE00BF08B501F0C3
:10283000C1F9BDE80840FFF78BBA00BF4FF0405325
:102840001149D3F8242B10B4D3F8840BD3F8284BB8
:10285000D3F8882B0968C2F307428A4211DDC0F31E
:10286000074090420DDBC4F30744944209DBD3F8E0
:10287000884B0648A1B20124047005480280C3F8C1
:10288000881B10BC704700BF54300020CC010020D2
:10289000CE0100200A4B1A7882B10A494FF040520B
:1028A000D2F8880BB1F9001080B2FF29A8BFFF2130
:1028B00040EA0141C2F8881B00221A70704700BF2D
:1028C000CC010020CE01002070B54AF2EB050D4E80
:1028D0000D4CCEF60E250BE085FB0320A279C31824
:1028E000632AC1EB63110BD8501AA071FFF730F9BE
:1028F000FFF706FC3288C2F16E03D9176D2AEBD9B7
:1029000070BD00BF600D0020240A002010B53C4BB4
:10291000187810B93B49087818B13B4B0020187063
:1029200010BD3A4B1A881C464F2A25D89A79802A1E
:1029300004D0501E9871FFF70BF90120344B012190
:10294000198094F9062033495A800A789A802188A0
:10295000D98062881A81304B197820B141B10020AA
:102960000521A22202E019B10521A62204F09EFB56
:10297000254A0020107040E09888C72806D9B0F595
:10298000C87F06D8C0F516718BB203E04FF4C87348
:1029900000E0C82318B282421B4902DD0B785A1CA2
:1029A00000E000220A70087804284FF0000025D9C2
:1029B000154C2070154CA1797F2904D04A1CA271B6
:1029C000FFF7C6F80120124B94F906100022598037
:1029D00010491A80097899802188D98061881981E5
:1029E0000D4B197820B141B110460521A22202E019
:1029F00019B10521A62204F059FB012010BD00BF2A
:102A00006E1300207E08002034080020240A0020D5
:102A1000C0080020280D0020B6090020124B134AE0
:102A2000F0B519684FF4C0660423581EC3B2FF2BDB
:102A300018D006FB03F40F5B0D19C7F3072702F844
:102A400013700C5B5800471CE4B2D455B5F8FE7502
:102A5000841CC7F307271755B5F8FE450330E4B2C9
:102A60001454E2E7F0BD00BF4C0100202C0D002003
:102A7000F0B51F4B1F481B684FF4C0641A8891B211
:102A80000180002204FB02F107885E5ABFB2B6B291
:102A9000B74203EB01050DD15E5AB5F8FE55B6B24B
:102AA000ADB2AE4206D1595A013289B2042A018030
:102AB000E8D103E00F4B4FF6FF721A800D480E4A23
:102AC000038899B213889AB291420DD000884FF6CC
:102AD000FF7381B2994209D0084A92F83301D0F1CC
:102AE000010038BF0020F0BD0120F0BD0020F0BD86
:102AF0004C010020200A00204801002074350020ED
:102B00002DE9F04104460120FEF7ECFF4FF4C060D0
:102B1000544B60431F6854491E2312261D465A1EFB
:102B2000D3B2FF2B12D006FB03FE1222013AD2B21F
:102B3000FF2AF4D005FB020807EB080C9C449CF824
:102B40001E820EEB020C21F81C80EFE74748454D32
:102B5000816A172088472E684FF4C06707FB046618
:102B6000414FB4256B1EDDB2FF2D05D0731993F8CC
:102B7000EE2427F81520F5E7DFF8F0804FF4C06663
:102B8000384F6643D8F82820182090473868364DCB
:102B9000811991F8A935EB8091F8A825D8F828304B
:102BA000AA8091F8A705688091F8A61519202980B8
:102BB00098470220FEF796FF1E233F681220194611
:102BC0005A1ED3B2FF2B13D000FB03FE1222013A90
:102BD000D2B2FF2AF4D001FB026C07EB0C0808EB21
:102BE000030C9CF802800EEB020C25F81C80EEE72B
:102BF0001E4D1720A96A88471A484FF4C06502681D
:102C0000194905FB0425B423013BDBB2FF2B05D09A
:102C1000EA1892F83A0421F81300F5E7134D18204A
:102C2000A96A88470F484FF4C0620368104802FB46
:102C300004340D4B94F8A515C170D98094F8A425DF
:102C400082709A8094F8A3154170598094F8A22557
:102C5000027008481A800270AB6A19209847BDE8D4
:102C6000F08100BF4C01002000600030E809002026
:102C7000280D00203C0D0020114B2DE9F047114993
:102C8000114E1F684FF4C065042313F1FF3315D3B1
:102C900005FB037804224FEAC30C12F1FF32F4D390
:102CA000945D0CEB0200444494F8A6A501EB0009E6
:102CB00089F804A094F8A2450C54EEE7BDE8F0872B
:102CC0004C0100202C0A002030E2000070B5114EAB
:102CD0001E20B36A9847104D10480122002402704C
:102CE000AC70FFF7A9F9B16A1C208847AB78002BBC
:102CF000FCD0AC70FFF7A0F9FFF7A8F90028F5D0D9
:102D0000044A1E20916A8847FFF796F9024B00207B
:102D1000987070BDE8090020284500201C0A00209A
:102D2000B44B2DE9F04F00201870B34BB34901228A
:102D30001A70B34AB34B88710321D18019788DB0D2
:102D400011B1A02104F0E8F8DFF8DC92DFF8DC82B2
:102D5000A848AC4B0278032A00F2E384A84C1D7803
:102D6000228025B100200121A82204F09FF9A64E5F
:102D7000A64F002130464FF4C0620AF077FE388833
:102D80009C4C82B23280398825788BB2A6F8FE3509
:102D9000032D9F4E28BF0025357006D19D4F322050
:102DA000BA6A90478C2003F0B1FD0220FEF79AFE2C
:102DB000954812271E247F217B1EDFB2FF2F0AD0E9
:102DC00004FB07F51E235A1ED3B2FF2BF4D0EE18D6
:102DD00082199170F7E78C4CB4257F20691ECDB223
:102DE000FF2D894A4FF07F0603D0631983F83A0418
:102DF000F4E71E2382F8A565122482F8A46518461C
:102E000082F8A36582F8A265013BDBB2FF2B0ED0EE
:102E100004FB03F512214E1EF1B2FF29F4D000FB92
:102E20000137D619B7786E1829F81670F3E7794884
:102E3000B425846A1720A047734A6F1EFDB2FF2D88
:102E4000714E05D0571997F83A0429F81500F4E7A0
:102E5000704C1820A26A904796F8A515A56AA9F8A3
:102E6000061096F8A4350024A9F8043096F8A305B6
:102E7000B346A9F8020096F8A2751920A9F80070C7
:102E8000A847274608940A940B94CFB9594E327834
:102E9000032A0FD16049162591F8293191F82A01AA
:102EA00091F8284181F83E3081F8420081F8325093
:102EB00081F83640FEF74CFEFEF7CEFE012002E020
:102EC000022F02D13846FEF70DFE0120FFF79AF8D7
:102ED0004FF01E0A1222561EF2B2FF2A2AD00AFB17
:102EE00002F01E234FF0600E0BEB000500215E1E6A
:102EF000F3B2FF2BEFD01FB9EC1884F81E7210E06C
:102F0000012F09D1EC1894F81EC20CF101065FFAEA
:102F100086FC84F81EC204E0C4180BEB040686F895
:102F200002E03E4EC41831553D4E08F8041026F814
:102F30001410DCE7B425602600216B1EDDB2FF2DE6
:102F400015D00BEB050317B983F8EE740AE0012FD7
:102F500006D193F8EE44621CD0B283F8EE0401E08F
:102F600083F83A6408EB050383F81C12E5E70426AE
:102F700060230021741EE6B2FF2E15D00BEB060075
:102F800017B980F8A6750AE0012F06D190F8A6457A
:102F9000621CD5B280F8A65501E080F8A23508EB96
:102FA000060080F8D012E5E71E490020888048809E
:102FB00008801E231220022F194639D0013BDBB2B4
:102FC000FF2B07D1134C1720A26A9047B421022F80
:102FD00062D041E000FB03F41222551EEAB2FF2A40
:102FE000ECD001FB02B6F51895F81E62A51829F879
:102FF0001560F2E7DC0100201C0A0020240A0020F2
:10300000C0080020B6090020640D002048010020FF
:103010005E0D0020E809002074350020E00100204A
:10302000FC030020D401002000600030500A002082
:103030005A1ED3B2FF2BC5D000FB03F41222551E3B
:10304000EAB2FF2AF4D001FB02360BEB0605AE789C
:10305000A51829F81560F2E74B1ED9B2FF2906D052
:103060000BEB010393F8EE0429F81100F4E7A94CE7
:103070001820A26A9047022F19D09BF8A935A9F809
:1030800006309BF8A845A9F804409BF8A725A9F8A5
:1030900002209BF8A65518E0481EC1B2FF29E6D0D1
:1030A0000BEB010696F83A5429F81150F4E79BF817
:1030B000A505A9F806009BF8A415A9F804109BF82B
:1030C000A365A9F802609BF8A255924EA9F800509A
:1030D000B16A192088479048B56A0078032818BF5C
:1030E0001C20A8478D4B9A788C4C002AFBD00026D8
:1030F000A670FEF7A1FFA1780029FCD0864B874D72
:103100001A78844C0020032AA870A66A01D10120F5
:1031100000E01E20B047FEF78FFF616A0F2088474E
:103120007F4C8049122314205D1EEBB2FF2B0FD081
:103130001E225D01561EF2B2FF2AF5D000FB0236B8
:1031400034F816A0AE18CAF3891C21F816C0F1E7AE
:1031500070480426426A10209047734A4FF6FF7366
:103160004FF03021741EA6B29E4206D031F81640B0
:10317000C4F3891522F81650F4E7DFF898A16B4DD7
:1031800003244FF6FF724FF03026611E8CB294423A
:1031900016D004F11400DAF82430C0B20792984730
:1031A000079A3C230321581EC3B2FF2BEDD001FB2D
:1031B000034036F813C0CCF3891E25F810E0F2E77F
:1031C0005B4DB5F90630BB420BD05348594E0278DF
:1031D00031782A806F8021B100200221642203F01F
:1031E00065FF4D4D524C2B78E780032B1DD1022FEC
:1031F00006D1514812210588DFF848E14F4833E0F5
:103200004C480678002E00F0288151210225122218
:10321000002002911E2101920095039504900590D3
:10322000474A0B4603F0BCFF17E1022F40F015811F
:10323000DFE7099B3B499C18B31818F803A031F845
:103240001440BAF1000F2CD1FA2C1ADD0BEB03015C
:103250008B78FF2B03D08C780134E3B28B70541E33
:10326000E2B2FF2AE5D106994A1ED1B2FF296BD0FE
:103270001E224B01099302FB01F64FF0010C06914F
:10328000EDE7952C05DD0BEB030108F803C08C7806
:103290003CE00BEB03018C78002CE0D08B785C1EBB
:1032A000DBE7BAF1010FDAD11EF803A0BAF13E0F45
:1032B000D5D80AF1010A5FFA8AF13F290EF8031006
:1032C00009D130F813400135B4FBF1FA5B4483F8BF
:1032D00002A0ADB2C3E7CD2C06DD5B449978FF298F
:1032E0000BD09C78013406E0C22C06DC5B449C7851
:1032F0001CB199784C1EE1B29970B3180BEB030422
:1033000094F802A030F813100AEB010420F81340DF
:10331000A5E700BFE8090020DC01002028450020C7
:1033200000200030CC270020702500207C250020C4
:10333000C0080020B6090020D4010020FC030020B2
:10334000820F0020E0010020BB4EB423358072883C
:10335000BA4E40F231250124013BDBB2FF2B29D0CC
:1033600008EB030191F81CE236F81300BEF1000FE0
:10337000F2D1A84209DD0BEB030191F83A04FF28D2
:10338000EAD091F83A04013010E0B0F5E67F04DDB0
:10339000013281F81C4292B2DEE70BEB030191F897
:1033A0003A040028D8D091F83A040138C0B281F824
:1033B0003A04D1E7A04C04236280A288A04C0120EB
:1033C0005D1EEBB2FF2B3FD008EB030191F8D062FA
:1033D00034F81350002EF3D1FA2D09DD0BEB030165
:1033E00091F8A265FF2EEBD091F8A25501350FE0C0
:1033F000952D04DD013281F8D00292B2E0E70BEBAB
:10340000030191F8A255002DDAD091F8A265751E3E
:10341000EEB281F8A265D3E78748884D01804288E3
:10342000B42340F27E3401205E1EF3B2FF2B4FD155
:10343000814C834D62800423A288012040F27E34B7
:10344000591ECBB2FF2B62D17B4D7B48AA800288EC
:10345000B2F5077F80F007810EE1774C12222188B8
:1034600017B14FF0010A7FE040F27E3A013AD2B242
:10347000FF2AD1D01E2303FB02F04FEA421C0BEBC4
:103480000006BE465F1EFBB2FF2B1FD06D4D0CEB3E
:10349000030435F81470C41818F80450002DF1D145
:1034A000574505DC0127013108F8047089B2E9E7C6
:1034B000F41894F81E7207F0F005F02DE2D094F89D
:1034C0001E721037FDB284F81E52DBE77746CDE757
:1034D00008EB030191F81CE235F81360BEF1000F10
:1034E000A2D1A64204DC013281F81C0292B29BE711
:1034F0000BEB030191F8EE6406F0F006F02E93D08A
:1035000091F8EE641036F6B281F8EE648CE708EBC1
:10351000030191F8D0C235F81360BCF1000F8FD1D0
:10352000A64204DC013281F8D00292B288E70BEBAC
:10353000030191F8A66506F0F006F02E80D091F810
:10354000A6651036F6B281F8A66579E73D4D0CEB1D
:10355000030435F81470C41818F804508DB15F1EB8
:10356000FBB2FF2BF2D17746531EDAB2FF2A1ED0F0
:103570001E2303FB02F04FEA421C0BEB0006BE4683
:10358000EDE7B7F5FF7F04DD013108F804A089B24B
:10359000E5E7F41894F81E7207F00F050F2DDED042
:1035A00094F81E727D1CEFB284F81E72D7E7224891
:1035B000224C01804288B42301205E1EF3B2FF2B0F
:1035C0001ED008EB030191F81C6234F81350002E52
:1035D000F3D1B5F5FF7F04DD013281F81C0292B210
:1035E000EBE70BEB030191F8EE5405F00F060F2EFD
:1035F000E3D091F8EE546E1CF5B281F8EE54DCE79E
:103600000D4D0F4C6A80AA8804230120591ECBB2AD
:10361000FF2B3FF419AF08EB030191F8D06234F8A7
:103620001350002EF2D1B5F5FF7F0DDD013281F888
:10363000D00292B2EAE700BFD40100207C2500202E
:1036400070250020CC2700200BEB030191F8A65534
:1036500005F00F060F2ED9D091F8A6556E1CF5B2C5
:1036600081F8A655D2E74688B32E05D98488032C65
:1036700094BF0024012400E000240A2003F046F94E
:1036800027B90B9A561C0B960F2E05E0012F05D17A
:103690000A9D681C0A900F2808DD0AE0022F05D158
:1036A00008994B1CB3F5007F089302DA002C3FF415
:1036B00080AC0137FFB2032F7FF4E7AB224C2349E4
:1036C00020780B684FF4C06505FB0031204B0A469B
:1036D0001E7C01F5C06526F001041C74012442F42F
:1036E00070068032AA423460F9D11A7C42F001049B
:1036F0001C741A7C22F001041C74164C002354F82C
:10370000232041F823200133B3F5C07FF7D11049BE
:1037100001300A7C42F001030B740B490870FFF77B
:1037200017BB197819B10020A12103F0F5FB0A4855
:10373000826A312090478C2003F0E8F8074B002183
:1037400019700DB0BDE8F08FDC0100204C010020A5
:1037500000001050640D0020E80900201C0A002021
:103760002DE9F047033886B0032800F29380DFE8A4
:1037700010F0F000C600BD009500DFF804A3AE4CC9
:10378000DAF8002023600620904702F011FDDAF8F5
:10379000001008208847FFF751F802F077FEA7488D
:1037A0000378002B00F07E81A54C227822B906F028
:1037B0000BFA002800F0EC8002F076FEFFF76AF8C2
:1037C000DFF8DCE24FF0110C4FF040570CF1010034
:1037D00000EB00161D237400591C01EB4102013B54
:1037E00000EBC20657F82660DBB25A1C04EB010856
:1037F0004FEA166902EB42010EF8089000EBC10196
:1038000057F82110013BDBB2090EA218FF2B0EF86E
:103810000210E1D10CF1FF3C5FFA8CFCBCF1FF0F10
:10382000D4D12878002840F082810A20DAF80040BC
:10383000A04700F063FA83480368984700F04AFA0B
:10384000DAF800200B20904702F0A4F802F00CFDFB
:103850000E20DAF800108847FFF758F8002840F0EB
:103860009780794C2068002840F02381774B1A68B4
:10387000002A40F31E81764C2378012B00F06E81E4
:103880001720DAF80020904772480178002914BF09
:103890000524062460B206B0BDE8F0876E4D2B7893
:1038A000002B40F03381FEF7B9FEFEF729FC6B4A8E
:1038B0001178002900F08980694C2078064600289C
:1038C00040F08380674C10702478674A1470002C95
:1038D00040F0A480654901208B6A9847287818B188
:1038E0002046AA2103F018FB0524D3E7604D297870
:1038F00000294FD1052003F031FD0524CAE75D49B9
:1039000001240C7004F056FF5B4B93F8B000441E8A
:10391000D8B1FEF7F5FB04F0010604F0E1FF651EE7
:103920009CB136B1013DFEF7EBFB04F0D9FF6B1CF7
:103930000BD06C1EFEF7E4FB023D04F0D1FFFEF756
:10394000DFFB04F0CDFF002CF3D104F06BFF062465
:10395000A0E7FEF757F8322002F0D8FFFEF766FF27
:10396000464A002403201470FFF7CAF82046FEF7E9
:10397000B9F8434916200B68984701212046FEF705
:1039800087FB2046FEF784F802200121FEF780FB2A
:1039900004247FE701210020FEF77AFB0120FEF7D7
:1039A00077F8324A3120936A9847782002F0AEFFC8
:1039B00034482D4A0021017011702A4B2548324AA3
:1039C000197001709171297064E705F0B3FA2F4AFC
:1039D0001368002B2EDD51685C18E30F2C482D4C2A
:1039E000027823701AB12978002940F09480002BC6
:1039F0003FF4C3AE104C2368022B0BDD26482A7817
:103A00000380002A40F0A480FEF708FF0021216017
:103A100004243FE70133236006243BE7134C1E20B8
:103A2000A26A90471D482B78FF210170002B67D1B7
:103A300003242FE70023D1E7540800209908002031
:103A4000940800202C45002020090020B43B0020D1
:103A50007C15002036080020B609002058080020F8
:103A6000BD0800205A080020BC080020E8090020FA
:103A7000B509002037080020743500205E0D0020B5
:103A80003045002035080020240A00209C08002032
:103A9000F02C00200C150020C00800205901002047
:103AA000642D002006F032F800287FF47DAE042457
:103AB000F0E62B490C6824B92A4B1A68002A3FF714
:103AC000DAAE002802DD2848016841B1002C02DD91
:103AD000244C23681BB1254A1078022803D02449BE
:103AE00000200880CCE622490C88631C9AB2C82AC0
:103AF0000A807FF6C5AE01200021FEF7C9FABFE6B5
:103B00003046A92103F008FA0324C3E601207921F5
:103B100003F002FAC7E65A2200238DE80C000120C8
:103B200004230321134A03F03BFA23785FE70023C1
:103B30000224122208210192029104930593009419
:103B4000039404201E210C4A222303F029FB6CE677
:103B500000200121102203F0A9FA55E70220CBE74B
:103B6000B80900200C090020B43B00207C1500207F
:103B7000CC2C002070250020872D002044F2D83066
:103B80004EF2F80108B5C0F200014FF49C72C2F287
:103B9000000009F0BDFE08BD43F2745044F2D83174
:103BA00008B5C2F200014FF49C72C2F2000009F0A5
:103BB000AFFE08BD08B544F23053C2F200031968E5
:103BC0000020884708BD00BF884230B40ADB90421D
:103BD0000BDA029D401AEC1A00FB04F0511A90FB1C
:103BE000F1F29B18184630BC7047029BFAE700BF01
:103BF00043785AB2102A01DC591C417003785AB23A
:103C0000002A01DD591E0170C3785AB21C2A01DC5A
:103C1000591CC17083785AB2002A01DD591E817087
:103C2000704700BF254848F63963B0F9F010F0B48A
:103C3000B0F9EE20C3F6E30348F6890483FB01568E
:103C4000C8F6880484FB0257CD17C5EBE606BC18FE
:103C500035B2D7171A4EC7EB641400273760194ED8
:103C6000194B4FF0FF37776090F8FC001E2624B206
:103C70001E6012265E609C60DD60C8B91348144C5B
:103C80000260216048F6890402EB4202C8F688040B
:103C900084FB0210D1178418C1EB64144FF040501C
:103CA00000214FF458625C611C61F0BC09F0DEBE7B
:103CB0000648016006490A60E4E700BF7435002049
:103CC000B43B0020B8090020D82C0020D02C0020C4
:103CD0007815002043F6B43008B500214FF4B672D1
:103CE000C2F2000009F0C2FE40F60C13C2F200035B
:103CF00000214FF0FF3283E8060008BD2DE9F04FA8
:103D0000DFF89C820021ADB04FF4A0629E4809F01C
:103D1000ADFE00214FF4B672404609F0A7FE9B4964
:103D20007F22FF2388F86A2188F8682188F86B31A0
:103D300088F8693188F8662188F8642188F8673145
:103D400088F8653188F8622188F8602188F8633145
:103D500088F8613188F85E2188F85C2188F85F3145
:103D600088F85D3188F85A2188F8582188F85B3145
:103D700088F8593188F8562188F8542188F8573145
:103D800088F8553188F8522188F8502188F8533145
:103D900088F8513188F84E2188F84C2188F84F3145
:103DA00088F84D3188F84A2188F84821487888F801
:103DB0004B3144B2102C88F8493188F8462188F8F4
:103DC000442188F8473188F8453188F8422188F83D
:103DD000402188F8433188F8413188F83E2188F83D
:103DE0003C2188F83F3188F83D3188F83A2188F83D
:103DF000382188F83B3188F8393188F8362188F83D
:103E0000342188F8373188F8353188F8322188F83C
:103E1000302188F8333188F8313103DC441CE5B2B5
:103E20004D706CB20E7872B2002A119205DD731ECD
:103E3000D8B2564D46B228701196CE7872B21C2A6E
:103E400003DC731C5148DEB2C6708D7869B200295C
:103E500003DD013D4D4AEDB29570119BA4469C4295
:103E6000C0F27A864A4F4B4A97F9004097F90310FF
:103E700097F9020097F901702692091B0CEB0402D6
:103E8000001B3C1B444F6DB2444B6FF0210912954F
:103E90003D68269F0CFB099AB7F814B0013293F9DC
:103EA0000170DDF8489076B293F902E002EB02125D
:103EB00001EB011100EB001004EB0414289593F9B9
:103EC000035093F9003020975200490040006400ED
:103ED000771C09F1FF39CDF838A01096DA461E9507
:103EE000CDF87CE021930F921691179018941D97AE
:103EF000CDF83490E346DDF840C0129B9C45C0F2FB
:103F00004A820BF1010404EB041251001D9D42F69C
:103F1000645741F6987E01EB0C00C2F20007C2F232
:103F2000000E4E19C3190EEB4002DDF83C90169CB2
:103F30000F99179809EB040C0D18F619189C5F1CC3
:103F40000F9BDDF838E0DDF878900E9814951F9DF2
:103F50001919CDF854C044190EEB090C139120988F
:103F60000E99DDF838E0DDF884901A940D183C467F
:103F7000F1443746109B5E46CDF864C0D3461B958E
:103F8000CDF87090A2467AE06C30002020420020EC
:103F90007CDE00009C0800205430002080DE000001
:103FA000A0130020558808EB8109D9F804002CB231
:103FB00001F1100C0C940A9504FB060558F82C002E
:103FC0000C9CC9F8045004FB0304480048F82C403A
:103FD0000B90441801F14C0008EB840418F920E020
:103FE000B4F87C50DDF82890CDF88CE00BF1010B93
:103FF00009EB050ECDF888B0B4F88250DDF88C904E
:10400000DDF888B005F10C0CB145A4F87CE0A4F80B
:1040100082C01FFA8BFB05DD41F2A034C2F200041E
:1040200004F8206008EB800508EB800495F901E0B6
:1040300094F902C0B645B8BF6E709C4508EB80008D
:10404000C8BFA3700B9C90F9035061189D4208EB08
:104050008105B8BFC370DDF83090B5F97E007835C2
:10406000814505DDDDF828E06B72A5F806E02E72CB
:104070000D9C013B013F023AA34200F08A811AF8ED
:104080000119A1F110006F2840F2FA844D1EE9B227
:104090000E2987D9B2F902000028E9DD199C159D87
:1040A000E119495D4C1E0E2C40F2EF8402254FF0C1
:1040B000030C4FF000090A9502210125CDF890C0AC
:1040C0000C910995CC461A9CCDF82C90E119149CC2
:1040D000095D4C1E0E2C16D801248C401CEA040FDE
:1040E000239410D12CAC4C442294099CA9460B94E7
:1040F000229C239D04F8081C24990C9C4CEA050C76
:1041000009940A9D0A911B99139CC919095D4C1EBB
:104110000E2C11D801248C401CEA040F0C940BD1F6
:104120002CAC4C44DDF8309004F8081C09994CEA9A
:10413000090CA9460A9D0B911C9CE1190F9C095D75
:104140004C1E0E2C00F2028501248C401CEA040F48
:1041500040F0FC840DF1B00E0EEB090404F8081CCD
:10416000A946289990FBF9F4884240F3EB8409F1C1
:10417000100CCDF828C05FFA8CF109F1FF35002D45
:104180000B958AF8011040F31E8503FB04F506FB2E
:1041900004FE0C950A9DA1B2112D2491CDF824E0C6
:1041A0004FF0000140F08384CDF894908E46B146E4
:1041B00022943E4627921F462CAD6A1812F8084CEE
:1041C000099A611EC9B208EB81056C6801EB4103D5
:1041D000A41810316C600C9A58F8215008EB830336
:1041E000AC1848F82140B3F87C5024990EF1010C2A
:1041F0004A19239223995FFA8CFEA3F87C100B9B3B
:10420000229C7345C4EB00007146D5DC3B46279ADF
:1042100037464E46DDF894902CAD6C1814F8081C07
:104220004D1EECB208EB840504EB440104F1100CC4
:1042300008EB8104696800FB0611696058F82C508E
:1042400000FB0351B4F87C5048F82C100A9940192F
:10425000A4F87C00783411293FF40AAF4DF6746558
:10426000C0F20005618915F80900411861810B9CB5
:10427000002C7FF7FDAE4FF0010E09EB0E05002478
:104280000A9509970C934FFA8EF74F4580F26C848C
:104290002CA8031913F8084CC119651EEBB20120B4
:1042A000984011F8084C0B90611E01370A9843F2B0
:1042B0006C04FD43C2F200042818C9B204EB4305A4
:1042C0000B9C00F00100994222950B90A5B240F2A0
:1042D0006184012000FA01F143F26C00C2F2000097
:1042E00030F81340214320F813100A9C791CA14296
:1042F000384600F039840B9CBCB12CA8C71917F8BC
:10430000084C601EC0B2984200F24F8443F26C0425
:10431000C2F2000434F810702F4324F810700A9C85
:1043200008460131A14200F01F84229C22921EE027
:10433000012707FA00F0228842EA000727802CA80C
:10434000421812F8087C0131781E0B91C1B29942D3
:1043500040F21484012202FA01F1278847EA0100A1
:1043600020800B980A9A411C914200F0FC832CAAF1
:10437000171817F8080C421ED0B29842D8D843F24A
:104380006C07C2F2000737F810202A4327F81020E4
:10439000D5E7DA46B3460E9A0F99119D0BF1FF3B14
:1043A000223222395D450E920F917FF7A4AD269FF0
:1043B000D346A7F814A0B8F87C30BE4A002B00F012
:1043C000DD825468106C92F83111E5011BB295FB47
:1043D000F3F4C0014DB290FBF3F3102D546013645D
:1043E00002DC013182F8311198F8300142B2002A22
:1043F00003DDB04D431E85F8303198F8331148B2D3
:104400001C2803DCAB4A4B1C82F8333198F832513C
:1044100069B2002903DDA74B681E83F83201B8F8A2
:104420008850A44B002D00F09A839C68586C93F838
:10443000352129B2E50195FBF1F4C00155B290FB9D
:10444000F1F1102D9C60596402DC013283F83521B2
:1044500098F8343158B2002803DD964D591E85F87E
:10446000341198F837315AB21C2A03DC9149581C90
:1044700081F8370198F836516BB2002B03DD8D4A75
:10448000681E82F83601B8F894108A4D002900F0B1
:104490006883AB6CEC6895F8392109B2E401D80166
:1044A00094FBF1F490FBF1F351B21029EC60AB6492
:1044B00002DC013285F8392198F8385168B20028B9
:1044C00003DD7C496B1E81F8383198F83B516AB2A4
:1044D0001C2A03DC774B681C83F83B0198F83A11DF
:1044E0004DB2002D03DD734A481E82F83A01B8F838
:1044F000A010704B002900F08083DD6C1C6993F8DC
:104500003D2109B2E401E80194FBF1F490FBF1F5DF
:1045100051B210291C61DD6402DC013283F83D21B7
:1045200098F83C3158B2002803DD62495D1E81F8DD
:104530003C5198F83F315AB21C2A03DC5D4D581C9F
:1045400085F83F0198F83E114BB2002B03DD594A24
:10455000481E82F83E01B8F8AC50564B002D00F0D2
:104560004E835C69186D93F8412129B2E50195FBF2
:10457000F1F4C00155B290FBF1F1102D5C611965A9
:1045800040F34C8298F8403158B2002803DD494D81
:10459000591E85F8401198F843315AB21C2A40F34D
:1045A000388298F842516BB2002B03DD414A681EF5
:1045B00082F84201B8F8B8103E4D002900F0198386
:1045C0006B6DAC6995F8452109B2E401D80194FB03
:1045D000F1F490FBF1F351B21029AC616B6540F33B
:1045E000148298F8445168B2002803DD31496B1EEB
:1045F00081F8443198F847516AB21C2A40F300828E
:1046000098F846114DB2002D03DD2A4A481E82F863
:104610004601B8F8C410274B002900F0EC829D6DCC
:10462000DC6993F8492109B2E401E80194FBF1F453
:1046300090FBF1F551B21029DC619D6540F3DC81FE
:1046400098F8483158B2002803DD1A495D1E81F8F8
:10465000485198F84B315AB21C2A40F3C88198F857
:104660004A114BB2002B03DD124A481E82F84A0160
:10467000B8F8D0500F4B002D00F0B7821C6AD86DEF
:1046800093F84D2129B2E50195FBF1F4C00155B233
:1046900090FBF1F1102D1C62D96540F3A48198F8CC
:1046A0004C3158B2002807DD024D591E85F84C11D7
:1046B00002E000BFA013002098F84F315AB21C2A24
:1046C00040F38C8198F84E516BB2002B03DDBC4A4D
:1046D000681E82F84E01B8F8DC10B94D002900F0D0
:1046E00086822B6E6C6A95F8512109B2E401D801DB
:1046F00094FBF1F490FBF1F351B210296C622B663C
:1047000040F3958198F8505168B2002803DDAC4918
:104710006B1E81F8503198F853516AB21C2A40F34D
:10472000818198F852114DB2002D03DDA44A481E34
:1047300082F85201B8F8E810A14B002900F0698214
:104740005D6E9C6A93F8552109B2E401E80194FB7F
:10475000F1F490FBF1F551B210299C625D6640F3D3
:104760008B8198F8543158B2002803DD94495D1EBE
:1047700081F8545198F857315AB21C2A40F3778186
:1047800098F856114BB2002B03DD8D4A481E82F873
:104790005601B8F8F4508A4B002D00F03C82DC6AD8
:1047A000986E93F8592129B2E50195FBF1F4C00107
:1047B00055B290FBF1F1102DDC62996640F3538104
:1047C00098F8583158B2002803DD7D4D591E85F800
:1047D000581198F85B315AB21C2A40F33F8198F87F
:1047E0005A516BB2002B03DD754A681E82F85A01DC
:1047F000B8F80011724D002900F00782EB6E2C6BA7
:1048000095F85D2109B2E401D80194FBF1F490FB25
:10481000F1F351B210292C63EB6640F31B8198F839
:104820005C5168B2002803DD65496B1E81F85C317C
:1048300098F85F516AB21C2A40F3078198F85E111C
:104840004DB2002D03DD5E4A481E82F85E01B8F8C5
:104850000C115B4B002900F0DA811D6F5C6B93F843
:10486000612109B2E401E80194FBF1F490FBF1F558
:1048700051B210295C631D6702DC013283F86121AB
:1048800098F8603158B2002803DD4D495D1E81F86B
:10489000605198F863315AB21C2A40F3D18098F8DD
:1048A00062114BB2002B03DD454A481E82F86201BB
:1048B000B8F81851424B002D00F0A3819C6B586F43
:1048C00093F8652129B2E50195FBF1F4C00155B2D9
:1048D00090FBF1F1102D9C63596702DC013283F8E3
:1048E000652198F8643158B2002803DD344D591E13
:1048F00085F8641198F867315AB21C2A40F39B80FE
:1049000098F866516BB2002B03DD2D4A681E82F8C1
:104910006601B8F824512A4B002D00F07481DC6B3D
:10492000986F93F869112AB2E50195FBF2F4C00182
:104930004DB290FBF2F2102DDC639A6702DC01317C
:1049400083F8691198F8683158B2002803DD1C4AD1
:104950005D1E82F8685198F86B114BB21C2B03DC7A
:10496000174D481C85F86B0198F86A114AB2002A65
:1049700003DD13484B1E80F86A310F23269DC8F8CB
:104980000030B5F916100F4B09B99A8ADA820E4831
:104990000178002940F01A810C4A9088518803B2AE
:1049A000002B0B4BD8BF0020988108B2128800283A
:1049B000D8BF0021598111B20029D8BF002209E0D7
:1049C000A01300209C080020B6090020841F0020AE
:1049D0000C0900201A812DB0BDE8F08F8F49581CBA
:1049E00081F84F016EE6013283F84D2157E68B4D79
:1049F000581C85F84B0132E6013283F849211FE645
:104A0000864B681C83F84701FAE5013285F8452199
:104A1000E7E58249581C81F84301C2E5013283F879
:104A20004121AFE57D4B681C83F8530179E60132E3
:104A300085F8512166E67949581C81F867015FE7DE
:104A4000764D581C85F8630129E7744B681C83F880
:104A50005F01F3E6013285F85D21E0E66F49581CFD
:104A600081F85B01BBE6013283F85921A8E66B4D62
:104A7000581C85F8570183E6013283F8552170E60A
:104A800000248AF80140FFF7F3BA4FF001094FF014
:104A9000030E022509FA01FC8DF8A8100424032155
:104AA000CDF828E024940C910995FFF70CBB4DF646
:104AB0007465C0F2000515F80950CDF8A4B0229530
:104AC000CB468E46B14623943E4608921F462CAAFA
:104AD000531813F8084C099A611EC9B201EB41053D
:104AE00008EB850308EB81056C681031A4186C6035
:104AF0000C9A58F821500EF1010CAC1848F82140DE
:104B0000B3F87C502499229C4A19B3F8821025925C
:104B1000651827952799259CA3F88210A3F87C4057
:104B20000B9B5FFA8CFE239A7345C2EB0000714623
:104B3000CDDC3B46089A37464E46D946DDF8A4B050
:104B4000FFF76ABB11210A91FFF717BB0B9D002DE0
:104B50003FF48EAAFFF705BB314826902BE40123D2
:104B60000CE702230AE7229A74460EF1010ECE45A5
:104B70007FF489AB099F0C9BFFF77ABA43F26C0272
:104B8000C2F2000232F8117045EA070022F8110063
:104B9000FFF7E7BB43F26C00C2F2000030F81140AF
:104BA0002C4320F81140FFF7A0BB012404FA00F0C9
:104BB00043F26C04C2F2000434F81370384324F852
:104BC0001300FFF7ACBB0021FFF726BB46220023F2
:104BD00004200F210292032203928DE80300049324
:104BE0000593104A02F0DCFAD6E60723C6E608234E
:104BF000C4E60523C2E60623C0E60323BEE604237B
:104C0000BCE60D23BAE60E23B8E60B23B6E60C236A
:104C1000B4E60923B2E60A23B0E600BFA0130020E1
:104C20009C0800206C3000202DE9F04F8146B1B087
:104C30004FEA400A09F1100512950AEB000341F210
:104C4000A030C2F200004FEA8904129F061900EB5F
:104C50008303756880460B9450F82700B3F97C40B5
:104C60002D9100FB04F705FB04F5DDF8B4C04FEA15
:104C7000410B0C950D976546594441F2A03708EB5E
:104C80008101103508EB8C08C2F20007B1F97C00F5
:104C9000D8F804C057F825500C9FDDF834800CFB81
:104CA000007C05FB008524189CFBF4FC95FBF4F0CC
:104CB0000FFA8CF57560DDF8488041F2A036C2F23B
:104CC000000600B246F828001092126809F14C0460
:104CD00046F82420B1F87E50B3F97E2009F1010690
:104CE00028B2783178335FFA86F882422E942F9674
:104CF000CDF8A48004DA4C7A097ADD805C721972EE
:104D0000DDF8B4C041F2A0320BEB0C05C2F2000298
:104D10000AEB090302EB830302EB8502B3F87C1074
:104D2000B2F87C00B3F88250B2F882406646013691
:104D300040182C96611976B2A3F87C00A3F8821073
:104D400000230E2EA2F87C3066DC664C2C9D0BEB0B
:104D500004031A88012742FA06F2D2070AEB04017B
:104D600005EA070509D507FA06F4088844EA0002AF
:104D70000A80188820EA04041C80DDF8B080012431
:104D800008EB040250B20E2846DC002D00F08983A7
:104D90001888A21940FA02F0C00708D507FA02F2F3
:104DA000088810430880188820EA02021A80DDF87B
:104DB000B0C001340CEB040042B20E2AD8BF6546E5
:104DC0002ADCB3F800C0621CA4194CFA04FC1CF0E5
:104DD000010F02EB06000CD007FA04F4B1F800C092
:104DE00044EA0C0CA1F800C0B3F800C02CEA04049B
:104DF0001C801C8844FA00F4E40708D507FA00F088
:104E00000C8804430C801C8824EA00001880541C81
:104E10002A1950B20E28D4DD2D9E002E66DD012108
:104E200001FA06F601FA09F52E488C46034633F8D6
:104E3000022B2C99F4433242AFB25044A5B201EA9E
:104E40000C0409D0B9F1000F40F336833A4323F83C
:104E5000022C2A4023F8022CDDF8B0800222012126
:104E6000424543D0002C00F0198319881E4B314273
:104E700009D0B9F1010F40F31683394323F8021C1E
:104E8000294023F8021C2C9C11460132A24218BF73
:104E9000A04618D12AE03C4323F8024C2C4023F8CA
:104EA000024C33F8021B541C314208D0914540F3A8
:104EB000E082394323F8021C294023F8021C621CBB
:104EC0004245214612D033F8024B3442E9D089459D
:104ED000E1DCE3DA0CFA01F104882143018033F8C4
:104EE000024CDBE76C300020703000201098109BE3
:104EF000047893F9013062B29A42219400F3A082BF
:104F0000664E674996F9007096F901502B97DDF8C7
:104F1000AC8096F9024096F90300561902EB080599
:104F200017196C1C149402EB000BDDF850C002EB57
:104F30000212D14491F902A07C1C0C920BF10100E9
:104F400091F903200CEB0C1804EB041491F901C047
:104F500000EB0010CDF87CA0DDF840A0751C91F9A5
:104F600000101E9226960C9A660027970B9C47000D
:104F700041F2A030C2F2000005EB0515CDF880C06B
:104F80009AF903C04FEA480815916D00510000EBF3
:104F900089090219CDF858802291239524962597E6
:104FA000CDF8A0B04FF00108CDF874901392CDF871
:104FB0002CC01099DDF82C908D786EB24E450C9572
:104FC0000F9600F36082B346279C269E611C771CD7
:104FD000149B2B98289DDDF880A0DDF87CC01E9ED8
:104FE0001B971C910BEB06040BEB0A011A1A149F7A
:104FF0000BEB0C006B1CDDF86CB0DDF870A01A93A5
:105000000F9D159B07EB07190AEB0A160BEB0B1705
:10501000DDF888A0DDF83CB0ED1805EB4909DDF8B6
:1050200068C00AEB0B05DDF88CA00CEB0C1301EB50
:105030004707DDF894C0514402EB021242F6645A6D
:105040000BEB4202C2F2000A04EB4303DDF890B01E
:1050500064445244DDF850C041F6987AC2F2000A26
:1050600000EB460658440CF1FF3B0AEB490C0AEBF7
:10507000460942F66456C2F20006A419AD19801919
:105080008919CDF8A8B017940AEB470B0D950AEBD8
:10509000430A189000231991644618E07CDE000052
:1050A00080DE00005070109F97F903500B950C9E06
:1050B000DDF82CC0F51868B20132023484450BF1DA
:1050C000020B09F102090AF1020AC0F26581577860
:1050D00001337E1EF0B241B21029E8DDDDF834C0A4
:1050E0000D9F0CEB030595F844C0FD5C167808FA9B
:1050F00005F708FA0CFC957808FA06F608FA05F5A3
:105100004CEA070737432F43FD07D0D51129C9D1F2
:105110002998179DDDF83CC05E1E50700CEB060709
:10512000E85C1E9EBE19002848D1BAF802C00FFAEA
:105130008CF00028CDF808C040DD289D06FB00F665
:1051400000FB05F51D981195139D7830B0F804C04B
:105150000B90686841F2A0350A901298C2F20005DF
:1051600055F82000F601119D01960A9E0990ED0167
:105170000FFA8CF006FB0055019E0E95099D05FB6C
:105180000060029D1190AC441FFA8CFC11980E9E99
:105190000FFA8CF596FBF5F690FBF5F50B98A0F859
:1051A00004C0DDF85CC012980CF8031013994E602F
:1051B00041F2A036C2F2000646F82050DDF860C089
:1051C0001F991CF80350C819002D43D1B9F802C02B
:1051D0000FFA8CF6002E3DDD279D1D9906FB05F587
:1051E00000FB06F613980E9545681298089541F253
:1051F000A035C2F2000555F8200078310B910790D8
:1052000089880E98F6010296089E0DB2C00106FB31
:105210000500029E11900798614400FB0565DDF8CA
:1052200044C08EB20E9535B29CFBF5F0DDF838C067
:105230009CFBF5F10B9DDDF860C0AE80139D11263F
:105240000CF80360686041F2A0361298C2F20006C2
:1052500046F820101999209DC85CEE19002843D10A
:10526000BBF802C00FFA8CF100293DDD26981D9D88
:1052700001FB00F00E901398783506FB01F60B95B4
:10528000A98845681298069541F2A035C2F200053A
:1052900055F82000F60105900E980296069E0DB274
:1052A000C00106FB0500029E11900598614400FBB9
:1052B0000565DDF844C08EB20E9535B29CFBF5F065
:1052C000DDF838C09CFBF5F10B9DDDF864C0AE80C5
:1052D000139D11260CF80360686041F2A036129805
:1052E000C2F2000646F820100F9D1599169805EB9E
:1052F000010C42F6645600EB0C05C2F2000605EB09
:10530000060C15981CF80310C61900293FD16088B7
:1053100001B200297FF7C7AE06FB01F6139D0E967A
:105320006E6841F2A0350496129EC2F200052A9FD3
:1053300055F8266007FB01F71D9903960E9E7831FC
:105340000B91F60189881196049E0DB2FF0106FBB0
:105350000577119E0E97039F401807FB056586B2DF
:105360000E9F119531B2119D97FBF1F00B9F95FBAC
:10537000F1F1139DBE8011260CF803606860DDF822
:1053800048C041F2A030C2F2000040F82C10109941
:1053900091F903700B978AE6109B1B9893F90130E3
:1053A0001C9C2199229D4F1CFEB22235239F1699E9
:1053B00022952690149D24982794259C223772B21A
:1053C00021961A9E22312230223423976F1C9A4252
:1053D000169124902594289614977FF7EAADDDF86E
:1053E0004080DDF82CC098F8004062B29A4227DC79
:1053F0005F4DDDF8A4902D9F501C98F8022051B20B
:10540000614517DC00EB00134E1C06EB43014B1902
:1054100013F8016B0132711E4EB2BE4208BF03F891
:10542000019CD2B208BF98F903C051B26145EFDDCB
:1054300098F901300134E4B262B201309A42DCDD05
:105440004C4C2F9E4C4D268029782C9E668000293E
:105450003BD1109D95F90000208095F901106180E5
:1054600095F90220A28095F90330E38031B0BDE8C0
:10547000F08FBFF621AD0CFA02F201880A430280D8
:1054800033F8021C18E5279C269F289A611C781C7B
:10549000551C1B901C911A950C4682E7DDF8B080D4
:1054A00011E52C9D8DE4BFF6EBAC018842EA0104C6
:1054B000048033F8021CE3E4BFF6CBAC02884CEA6C
:1054C0000201018033F8022CC3E4072002210C22E0
:1054D00001F0ECFD41F2A03ADDF8B890C2F2000A0A
:1054E0000AEB890393F9010093F9021093F9032061
:1054F0001AF929702B78214E27806080A180E280E4
:10550000002BA6D007200421002201F0CFFD2D980A
:105510002B784C3006EB800292F9021016F92060CD
:1055200092F9010092F9032026806080A180E28038
:10553000002B8ED007200421002201F0B7FDDDF8FA
:1055400040C029789CF9000020809CF901206280ED
:105550009CF90230A3809CF90300E080002985D0EB
:1055600007200421002231B0BDE8F04F01F09EBDBC
:10557000642D0020C0080020B6090020A0130020E0
:105580002DE9F04FDFF8AC93DFF8ACA38BB04FF010
:10559000000B0BEB4B0309EB8300B0F97C20783058
:1055A000002A00F0BE8190F90880417A08F1FF34AA
:1055B0000294029B08F10104A342069400F3B18116
:1055C0004FB207976FF0430004EB0413079C08EBFE
:1055D000081600FB08F842F6645071000137661E99
:1055E000C2F20000CA1903960E1841F69871C2F271
:1055F000000101EB42029B0004920593039CBC4214
:1056000000F38281351902986978421C079C03983F
:1056100002EB0213013941F6987204EB4305C0EB2B
:10562000070CC2F200020E2902EB4503CCF3400C3A
:105630005CD88B455AD00BEB4B0409EB840041F648
:105640009874C2F20004B0F97E2034F915005D466A
:105650009042BAF8C44049DB02FB04F2059C03EB1C
:105660000800005F9211824240DA049CB4F9000005
:1056700082423BDA594501DA8B4629460BF14C024E
:1056800001F14C0559F825E019F822504FFA8EF433
:1056900068B28442CDF820E009EB820E01DD8DF87E
:1056A00020509EF801209DF9215054B2A54201DA04
:1056B0008DF821209EF802209DF9225050B285429B
:1056C00001DD8DF822209EF803209DF9234055B27C
:1056D000AC4201DA8DF82320584608AA0193CDF890
:1056E00000C0FFF7A1FA019BDDF800C003991D1D62
:1056F0008C1CBC4200F30881BCF1000F53D0301960
:105700004278511E0E2900F2FA808B4500F0F78096
:105710000BEB4B0009EB8002B2F97E20B3F90430A9
:10572000DC469342BAF8C400C0F2E98002FB00F301
:10573000059805EB0802125E9B11934280F2DF8010
:105740000498B0F90020934280F2D980594501DADB
:105750008B4661460BF14C0301F14C0059F820C017
:1057600019F823E04FFA8CF04FFA8EF29042CDF800
:1057700020C009EB830C01DD8DF820E09CF801309E
:105780009DF921005AB2904201DA8DF821309CF83F
:1057900002309DF922005AB2904201DD8DF822308C
:1057A0009CF80330A0E03219517801390E294FD806
:1057B0008B454DD00BEB4B0309EB8300B0F97E30EA
:1057C000B5F90020DC469A42BAF8C40040DB03FB7E
:1057D00000F3059805EB0802125E9B11934237DA3D
:1057E0000498B0F90020934232DA5945BCBF8B4689
:1057F00061460BF14C0301F14C0059F8202019F8D7
:10580000230009EB830308924FFA82FC4FFA80FED3
:105810005A78F4459DF921C0C8BF8DF8200050B2D8
:105820008445B8BF8DF821209A789DF922E050B2C6
:10583000DB7886459DF92300C8BF8DF822205AB237
:105840009042584608AAB8BF8DF82330FFF7ECF90C
:10585000023431194B780435591E0E294FD88B4527
:105860004DD00BEB4B0009EB8002B2F97E30B5F95D
:105870000020DC469A42BAF8C40040DB03FB00F388
:10588000059805EB0802125E9B11934237DA0498E3
:10589000B0F90020934232DA594501DA8B4661466D
:1058A0000BF14C0301F14C0059F8202019F82300AA
:1058B0004FFA82FC4FFA80FEF445089209EB83030D
:1058C00001DD8DF820005A789DF921C050B2844541
:1058D00001DA8DF821209A789DF922E050B28645B0
:1058E00001DD8DF82220DB789DF923005AB2904229
:1058F00001DA8DF82330584608AAFFF795F90234EB
:105900000435BC427FF74FAF02990498069C8B1C6C
:1059100088304436A3420293A8F1880804907FF7A8
:105920006DAE0BF1010BBBF10E0F7FF732AE0BB07A
:10593000BDE8F08FA01300207435002010B40B7860
:1059400090F900405AB29442C8BF03704B7890F966
:1059500001405AB29442B8BF43708B7890F902402C
:105960005AB29442C8BF8370CB7890F903105AB2F0
:105970009142B8BFC37010BC704700BF42B103FB77
:1059800001F102FB0011D21801EB620090FBF2F171
:10599000084670472DE9F04F994D9A4C95F8EC3038
:1059A000D4F800A043F6B43689B04FF0FF310F228F
:1059B0009548C2F2000603935345D4BF3360C6F83E
:1059C00000A008F053F89148FF213C2208F04EF85F
:1059D0000398002872D08E49D5F8C8500A688D4BBC
:1059E0004FF00009049205950293CDF804902146EA
:1059F000DDF80880B8F92C60002E53D042F63C5CEC
:105A0000C2F2000C5CF819500498059A05FA00F5EA
:105A1000BAF1000F05EB020844DD42F604570023FB
:105A2000C2F200074FF0FF3B1A4609EB0705501C76
:105A3000C2B203EB430004EB8000B0F97C0003F139
:105A4000100701EB830688B1B5F9180051F82770EB
:105A500076683F1A07FB07F7B5F904E0CEEB0600BE
:105A600000FB00764645BCBF9B46B04692451346B8
:105A7000DDDCBBF1FF3F15D042F2B87CC2F2000C76
:105A80001CF90B506B1C00F0FF8144F22425C2F27C
:105A9000000555F82B30434504D9019A45F82B8071
:105AA0000CF80B200198029D461C039AF3B20C35AA
:105AB00093420193029509F1020999D1BAF1000FBD
:105AC00040F324820023DFF854B11E4642F2B87836
:105AD000C2F2000818F80310771C48B2421CFEB24C
